:020000040800F2
:10000000E0070020050100083726000859210008F4
:1000100035260008110D0008A92C0008000000007A
:10002000000000000000000000000000EB270008B6
:10003000910E000800000000592600081928000849
:100040001F0100081F0100081F0100081F01000810
:100050001F0100081F0100081F0100081F01000800
:100060001F0100081F0100081F0100081F010008F0
:100070001F0100081F0100081F0100081F010008E0
:100080001F0100081F0100081F0100081F010008D0
:100090001F0100081F0100081F0100081F010008C0
:1000A0001F010008B52800081F0100081F010008F3
:1000B000C12800081F0100081F0100081F010008D7
:1000C0001F0100081F0100081F0100081F01000890
:1000D0001F0100089D2C00081F0100081F010008D7
:1000E0001F0100081F0100081F010008DFF810D0E1
:1000F00000F0E2FD00480047853A0008AFF30080B9
:10010000E00700200648804706480047FEE7FEE774
:10011000FEE7FEE7FEE7FEE7FEE7FEE7FEE7FEE7B7
:100120006D280008ED000008202A04DB203A21FA9F
:1001300002F00021704721FA02F3D040C2F1200200
:100140009140084319467047A0F14101192900D890
:100150002030704740EA01039B0703D009E008C93B
:10016000121F08C0042AFAD203E011F8013B00F87C
:10017000013B521EF9D27047D2B201E000F8012BC8
:10018000491EFBD270470022F6E710B513460A4617
:1001900004461946FFF7F0FF204610BD421E12F834
:1001A000013F002BFBD111F8013B02F8013B002B72
:1001B000F9D1704730B505462A460B4612F8010BB7
:1001C00013F8014B08B1A042F8D01CB1002802D0AE
:1001D0006D1CF1E7284630BD421C10F8011B0029B8
:1001E000FBD1801A704710B5002200E0521C835CDE
:1001F0008C5CA34201D1002BF8D1D8B2E1B2401AF5
:1002000010BD30B505460020034600E05B1C93425C
:1002100005D2EC5CC85C201A01D1002CF6D130BDAF
:100220002DE9FF4F087883B09946FF2805D0491C77
:100230002D2804D00024002008E000200BE0012439
:10024000F9E700EB800003EB4000491C0B78FF2B23
:10025000F7D104B1404200230293147819461D4699
:100260002D2C01D02B2C04D1521C2D2C13D000246A
:100270000294AA461478FF2C0FD00A25A3FB057818
:1002800001FB05814FF0000C03FB0C11521CE3191C
:100290004AEB0101EEE70124EAE7814453EA010059
:1002A00002D019F5C87F06DA03980021C0E90011D1
:1002B00007B0BDE8F08F0025AE4E2F46DFF8B882BC
:1002C000184600F0B8FCCDE90001B9F1000002DAEF
:1002D000C9F1000400E004460023A74A1AEB030B0F
:1002E00042EB045A12E0E00707D02A46334638466C
:1002F000414600F0BFFB074688462A463346104673
:10030000194600F0B7FB05460E466410002CEAD1F2
:10031000DDE90001B9F1000F5A46534606DA00F054
:100320001BFC3A46434600F017FC05E000F0A2FB38
:100330003A46434600F09EFB029A0AB181F0004122
:10034000039AC2E90001B3E72DE9FF4F1F468DB0C4
:10035000D7E901464FF0FF382E2045464FF00009FF
:100360000B90B9696D1C0E988847396A8246884798
:100370000028F6D1BAF1FF3F0AD024F4D064002E51
:1003800011DDBAF12B0F08D0BAF12D0F0BD102E01D
:10039000404611B08DE744F48064B9696D1C0E9835
:1003A00088478246761E6946600501D52D2000E00B
:1003B0002B208DF8000001F1010B0DF1200809E060
:1003C000B9696D1C0E98884782460F9844F40074F2
:1003D000761E0560002E02DDBAF1300FF0D00B99C9
:1003E0008A453ED144F0800406E00F99681CA9F1CB
:1003F000010944F400740860B9696D1C761E0E98FA
:10040000884782463028F0D02BE00B998A4505D1E9
:10041000200603D444F08004761E18E0504602F013
:100420004BFE08B30DF11301761E44F400748B45A6
:1004300008D2AAF130000BF8010B200607D5A9F16C
:10044000010003E0200602D409F101008146A00565
:1004500002D50F99681C0860B9696D1C0E98884711
:100460008246002ED1DC53E0002E51DDBAF1650F3B
:1004700002D0BAF1450F4BD1A00549D5B9696D1C21
:1004800024F44074761E0E9888478246002E0CDDB8
:100490002B2804D0BAF12D0F07D144F48074B96928
:1004A0006D1C0E9888478246761EE00501D52D21E9
:1004B00000E02B2108F8011BCDF82C8021E00DF184
:1004C0002901761E44F4007488450CD2AAF130004C
:1004D00010F0FF0088F8000002D10B99884509D977
:1004E00008F1010806E0E00501D5244801E042F2E8
:1004F0000F708146B9696D1C0E98884782460F9827
:100500000560002E04DD504602F0D6FD0028D6D14D
:10051000F9690E988847FF208BF8000088F80000E2
:100520000020069007904B466A4608A906A8FFF7E8
:1005300077FEA00502D46FF001002AE714F0240F23
:100540000AD0E00714D1DDE906123868031D3B60CC
:100550000068C0E900120BE0DDE9060100F08FFB46
:100560000146E00704D13868021D3A600068016066
:1005700028460EE7000014400000F03FF1D8FFFFCE
:100580002DE9FE4F804681EA0300C00F0C46009023
:1005900021F0004123F00045B8EB0200A94105D24B
:1005A0004046214690461C460B46024623F000403A
:1005B000104347D0270DC7F30A00C3F30A51029036
:1005C000401A019040286BDAC3F3130040F4801BFB
:1005D0000098924620B10023D2EB030A63EB0B0B89
:1005E00001985946C0F14002504600F020F90646F5
:1005F0000D4650465946019A00F028F910EB0800C4
:100600006141002487EA115284EAE7731A4340D01B
:10061000009A62B3019A012A4FEA075215DC001BC7
:1006200061EB02014FF0004202EA0752CDE90042BD
:10063000001C41F5801132462B4600F0CDF903B085
:10064000BDE8F08F40462146F9E7001B61EB02014F
:10065000001C41F5801300185B412018A2F500171B
:1006600047EB030140EAD570B6196D4111E06D0802
:100670004FEA360645EAC0754FEA0752001B61EBA8
:100680000201001C41F5801149084FEA30000019B1
:10069000514132462B4603B0BDE8F04F00F08DB912
:1006A0000098012240000023D0EB020263EBE073CC
:1006B000009821464FEAE074B8EB000061EB0401BA
:1006C000E9E783F000435BE781F0004158E79623B8
:1006D0000022114600F043B920F00040C10DC0F3E4
:1006E000160040F400007F2901DA002070479629A7
:1006F00003DCC1F19601C8407047963988407047C5
:1007000070B5C1F30A5201F000450024C1F3130192
:1007100040F2FF3341F480119A4201DA002070BDAB
:1007200040F233439A42A2F2334203DC5242FFF7D3
:10073000FBFC00E090402C43F1D0404270BD000033
:1007400030B5041E71F1000404DB4FF00044404258
:1007500064EB0101141E73F1000405DB1C464FF02D
:100760000043524263EB04038B4208BF824230BD18
:1007700030B5041E71F1000404DB4FF00044404228
:1007800064EB0101141E73F1000405DB1C464FF0FD
:100790000043524263EB0403994208BF904230BDCC
:1007A00030B50B46014600202022012409E021FA41
:1007B00002F59D4205D303FA02F5491B04FA02F53E
:1007C0002844151EA2F10102F1DC30BD2DE9F05FD5
:1007D0000546002092469B468846064681464024B0
:1007E0001BE02846414647462246FFF79DFC5346FC
:1007F0005A46C01A914110D311461846224600F0BD
:1008000016F82D1A67EB01084F46224601200021F9
:1008100000F00DF817EB00094E41201EA4F1010471
:10082000DFDC484631462A464346BDE8F09F202A91
:1008300004DB203A00FA02F1002070479140C2F137
:10084000200320FA03F3194390407047202A06DB67
:10085000CB17203A41FA02F043EAE07306E041FA8E
:1008600002F3D040C2F1200291400843194670477C
:10087000426842B1016811F8013B23B1521EC0E940
:100880000012184670470121C160881E70474268F7
:100890005AB1C368016843B983688B4205D0491EC9
:1008A000521CC0E90012002070474FF0FF30704723
:1008B0000FB4002300B589B00CA900910B996FF01B
:1008C0000042CB601E4B06931E4B07930423CDE9D9
:1008D00001321D4A089202466B460020FFF734FDA4
:1008E00009B05DF814FB70B586B006464FF0FF30D6
:1008F0000091CDE90101002015460C4604903246D6
:10090000694604A8FFF7D4FF02460498211825B1D0
:1009100008B1084600E020462860049800280DD061
:10092000002A02DD0098884208D0081B0094CDE917
:1009300001043246694604A8FFF7BAFF06B070BD4D
:10094000710800088F080008DD0C00080029A8BF06
:100950007047401C490008BF20F00100704710B4E8
:10096000B0FA80FC00FA0CF050EA010404BF10BC9D
:10097000704749B1CCF1200421FA04F411FA0CF1CA
:1009800018BF012121430843A3EB0C01CB1D4FEA03
:1009900000614FEA102042BF002010BC704700EBFE
:1009A000C35010440029A4BF10BC7047401C49002C
:1009B00008BF20F0010010BC704710B5141E73F181
:1009C000000408DA401C41F1000192185B411A430F
:1009D00001D120F0010010BD2DE9F04D92469B465B
:1009E00011B1B1FA81F202E0B0FA80F22032904601
:1009F000FFF71DFF04460F4640EA0A0041EA0B01DB
:100A000053465A46084313D0114653EA010019D001
:100A1000C8F140025046FFF787FB05460E46504698
:100A200059464246FFF703FF084305D0012004E082
:100A300020463946BDE8F08D0020054346EAE076C1
:100A40002C4337430A986305E40AA0EB0800002210
:100A5000FD0A44EA47540A3002D500200146E9E77E
:100A6000010510196941DDE9084500196941BDE832
:100A7000F04DA2E72DE9FE4F81EA030404F00044A3
:100A800021F0004100944FF0000B23F0004350EAA6
:100A900001045ED052EA03045BD0C3F30A54C1F3ED
:100AA0000A552C44A4F2F3340194A0FB0254C1F380
:100AB000130141F48011C3F3130343F4801301FBCA
:100AC000024400FB034E840A970A44EA815447EA31
:100AD0008357A4FB076802958D0A05FB07854FEA3B
:100AE000932C04FB0C542705029D4FEA065847EA55
:100AF0001637B5EB08056EEB070C870E920E47EA2A
:100B0000811742EA8312A7FB0201B6EB0B0164EBEB
:100B100000042B0D43EA0C335E1844EB1C50DA46FC
:100B20005146E7FB0201C5F313044FEA0B3343EAD6
:100B300014534FEA0432019C43EA0603A4F10C0467
:100B40000294009CCDE900B4FFF746FF03B0BDE876
:100B5000F08F00200146F9E72DE9F04D81EA03040A
:100B600004F0004B21F0004514464FF0000A23F03A
:100B7000004150EA050220D054EA01021DD0C5F31D
:100B80000A570246C5F31303C1F31300C1F30A5613
:100B900040F4801543F48013A7EB0608101BD646DB
:100BA00008F2FD3873EB050002D308F1010801E0FB
:100BB00092185B41B8F1000F03DA00200146BDE84E
:100BC000F08D00204FF48011064684460EE0171B7E
:100BD00073EB050705D3121B63EB050306434CEAD1
:100BE000010C49084FEA300092185B4150EA0107B6
:100BF000EDD152EA030012D082EA040083EA050133
:100C0000084305D0101BAB4106D20122002306E0A9
:100C100000224FF0004302E06FF0010253101AEB84
:100C200006004CEB085110EB0A0041EB0B01BDE84C
:100C3000F04DFFF7C2BE0EB540F2334202920022E1
:100C4000CDE900221346FFF7C7FE03B000BDC1F394
:100C50000A52C1F3130140F2FF3341F480119A426A
:100C600002DA00200146704740F233439A42A2F272
:100C7000334202DC5242FFF757BAFFF7D8BD01F00A
:100C8000004330B421F0004150EA010206D00A0DC1
:100C9000A2F56072C1F31301002A02DC30BC00200F
:100CA0007047440F44EAC104C100E01830BC00EBB7
:100CB000C250FFF74BBE0000064C074D06E0E0684F
:100CC00040F0010394E8070098471034AC42F6D393
:100CD000FFF710FA4C4400086C440008C0B24FF40F
:100CE000F05100F001B800007F2801D9002208E08F
:100CF000064A02EB5002C007127800D1120902F036
:100D00000F02012090400840704700000A4400088C
:100D1000FEE7000070B50024322002F02BFE0C4DDF
:100D20001021284600F0E0F950B9642002F022FEBC
:100D30001021284600F0D8F908B1012400E0FF2472
:100D40001021284600F0D0F90028F9D1204670BDC6
:100D5000000C014070B5054600F056F8FFF7DAFFC9
:100D6000114C207000F022F8607000F01FF8A070A5
:100D700000F01CF8E07000F019F8207100F016F88F
:100D8000E0806678A17823797218E1780A441A44E1
:100D9000824207D10846FFF79AFC28603046FFF7E9
:100DA00096FC686070BD00004C0000202DE9F04109
:100DB0000024144F01261021384600F095F9002830
:100DC000F9D0322002F0D6FD1021384600F08CF91F
:100DD00090B1C4F1070106FA01F02843C5B2102111
:100DE000384600F081F90028F9D1641CE4B2082CDF
:100DF000E1D32846BDE8F081C4F1070006FA00F00F
:100E00008543ECE7000C014010B500F01FF80E4CD4
:100E10001021204601F0F4FC00221021204600F0B1
:100E20006CF944F2506002F0A5FD01221021204629
:100E300000F063F91E2002F09DFD2046BDE8104041
:100E4000102101F0D3BC0000000C01400E480168E5
:100E500021F080710160016841F0807101600B48F0
:100E6000016821F001010160016841F001010160A8
:100E70000021416000BF00BF00BF406808B10020F2
:100E80007047012070470000FCED00E0001000E01A
:100E90007047000010B590F821100024022903D0FB
:100EA0000421816301243DE001680A6822F00E02FA
:100EB0000A6001680A6822F001020A601A4A0168A1
:100EC000914201D1012121E0174A1432914201D10E
:100ED00010211BE0144A2832914201D1891515E0F6
:100EE000114A3C32914201D189140FE00E4A50322E
:100EF000914202D14FF4803108E00B4A64329142B2
:100F000002D14FF4801101E04FF08071064A083A97
:100F10005160012180F82110002180F82010416BE0
:100F200001B18847204610BD080002402DE9F84F66
:100F3000DFF890A100220AF1040B144601274FF0BC
:100F40000F090BF1040E00BF0B6807FA04F52B40E4
:100F5000AB4274D1DFF870C14E68A6EB0C08664551
:100F60002BD00DDC032E34D005DC36B3012E19D086
:100F7000022E2FD11BE0112E16D0122E2AD119E0ED
:100F8000B8F5881F19D006DCB8F5803F15D0B8F544
:100F9000801F1FD111E0B8F5001F0ED0B8F5041F57
:100FA00018D10AE0CA6815E0CA68121D12E0CA68C2
:100FB00008320FE0CA680C320CE08A682AB1012AB4
:100FC0004FF0080203D0456104E0042202E005610D
:100FD00000E00022FF2B01D8064601E000F10406E4
:100FE0004FEA840501D9A5F12005D6F800C009FA19
:100FF00005F82CEA080C02FA05F54CEA050CC6F8CF
:1010000000C04D68ED0057D5304DAE6946F0010681
:10101000AE61AD6924F0030605F0010500952C4D85
:1010200006EB050CDCF80850A6074FEA167809FA1B
:1010300008F6B543274EB04202D1002610E03BE04F
:10104000254EB04201D101260AE0244EB04201D122
:10105000022605E0224EB04201D1032600E004261C
:1010600006FA08F62E43CCF808604D68DAF80060FE
:10107000ED03554601D51E4300E09E432E604D68AA
:10108000DBF80060AD035D4601D51E4300E09E43E2
:101090002E604D68DEF80060ED02754601D51E43F6
:1010A00000E09E432E604D68AD020E4D2E6801D5C6
:1010B0001E4300E09E432E60641C102CFFF444AFDE
:1010C000BDE8F88F0004014000001110001002403C
:1010D0000000014000080140000C014000100140E8
:1010E000001401400C0401408068084000D0012039
:1010F0007047C2684A40C26070470AB101617047D8
:101100000904FBE7014880687047000028000020C0
:1011100002488168027811448160704728000020ED
:10112000074810B5016841F010010160032000F08C
:1011300073F8002000F006F800F024F8002010BD3D
:101140000020024070B50D4D04464FF47A712878A6
:10115000B1FBF0F00A490968B1FBF0F000F068FC5F
:1011600048B9102C07D200222146501E00F034F856
:1011700000206C6070BD012070BD000028000020C0
:10118000340000200C4808B5816941F001018161FB
:10119000816901F001010091C16941F08051C16193
:1011A000C06900F0805000900448416821F0E0617F
:1011B00041F00071416008BD001002400000014094
:1011C00000F01F02012191404009800000F1E02061
:1011D000C0F8001170470000F0B40E4B1B680C46BD
:1011E000C3F30223C3F10705042D00D90425191DFB
:1011F000072901D2002300E0DB1E012606FA05F1D3
:10120000491E214099409E40761E16403143F0BC55
:1012100001F012BA0CED00E0064900F00702086880
:101220004FF6FF03184040EA0220034A10430860CB
:10123000704700000CED00E00000FA052DE9F047D2
:10124000DFF8548105460E46D8F8000000F007008C
:10125000B0420CD2D8F8001021F007013143C8F891
:101260000010D8F8000000F00700B0426FD12868E5
:101270004A4C810712D5400703D5606840F4E0600E
:1012800060602878000703D5606840F460506060B3
:101290006068A96820F0F000084360602878C00703
:1012A00044D06868012816D02168022816D0890722
:1012B00000294CDA616821F0030101436160FFF706
:1012C00021FF6968074641F2883001290ED00229C2
:1012D000814618D026E021688903E9E78901E7E71C
:1012E000FFF710FFC11B494501D918E0814660682E
:1012F000C0F381000128F3D118E000BFFFF702FF1F
:10130000C11B49450BD86068C0F381000228F5D1A4
:101310000CE000BFFFF7F6FEC11B494502D90320D0
:10132000BDE8F087606810F00C0FF3D1D8F800101A
:10133000404601F00701B1420BD9016821F00701D5
:1013400031430160006800F00700B04201D0012085
:10135000E6E72878400705D56068E96820F4E06092
:10136000084360602878000706D56068296920F482
:10137000605040EAC100606000F03CF86168084AD3
:10138000C1F30311515CC840064908600020FFF713
:10139000D9FE0020C4E700000020024000100240F7
:1013A000F243000834000020014800687047000044
:1013B000340000200448054900684968044AC1F324
:1013C0000221515CC84070473400002000100240E8
:1013D000024400080448054900684968044AC1F30A
:1013E000C221515CC8407047340000200010024008
:1013F0000244000812A185B00FC98DE80F0014A0A7
:10140000144A006804905168134801F00C03042B3F
:1014100010D0082B0ED1C1F38343C9031DF803007C
:101420000AD5516804AAC1F34041515C0A4A5043AD
:10143000B0FBF1F005B0704708494843FAE70000F7
:1014400002030405060708090A0B0C0D0E0F101005
:10145000010200000010024000127A0000093D0065
:101460002DE9F84F04460078B94DC00748D06868A8
:10147000C0F38100012807D06868C0F3810002280A
:1014800009D16868C00306D52868800338D560682C
:1014900000286FD034E06068B0F5803F0BD010B109
:1014A000B0F5A02F11D0286820F48030286028687B
:1014B00020F4802002E0286840F4803028606068D2
:1014C00088B1FFF71FFE064609E0286840F4802037
:1014D0002860F0E7FFF716FE801B642875D828689F
:1014E0008003F7D50CE0FFF70DFE064605E000BFD0
:1014F000FFF708FE801B6428F0D828688003F7D423
:101500002078944E80074FF001094FF000083BD53A
:10151000686810F00C0F07D06868C0F381000228DB
:1015200009D16868C00306D42868800714D52069EB
:1015300001281FD110E02069B0B1C6F80090FFF774
:10154000E1FD074605E000BFFFF7DCFDC01B0228F8
:10155000C4D828688007F7D52868616920F0F800AA
:1015600040EAC10028600FE0C6F80080FFF7CAFD1E
:10157000074606E0E9E000BFFFF7C4FDC01B0228F4
:1015800023D828688007F7D4207800072CD5724824
:10159000A169D9B1C0F80090FFF7B4FD074604E097
:1015A000FFF7B0FDC01B02280FD8686A8007F7D587
:1015B0006A484FF4FA510068B0FBF1F0009000BFA8
:1015C0000098411E0091FAD20EE080E0C0F8008041
:1015D000FFF798FD074604E0FFF794FDC01B0228C3
:1015E00075D8686A8007F7D42078400760D5E86925
:1015F0000027C00008D4E86940F08050E861E8693D
:10160000012700F08050009055480168C90513D4A7
:101610000168834641F480710160FFF773FD8246E3
:1016200006E000BFFFF76EFDA0EB0A0064284ED86D
:10163000DBF80000C005F5D5E06801280AD008B144
:10164000052813D0286A20F001002862286A20F0BB
:10165000040002E0286A40F001002862E06841F2DC
:10166000883B98B1FFF74EFD82460BE0286A40F0B8
:1016700004002862EEE700BFFFF744FDA0EB0A017B
:1016800059455AD8286A8007F6D50CE0FFF73AFD8D
:10169000824605E0FFF736FDA0EB0A0159454CD81C
:1016A000286A8007F6D41FB1E86920F08050E8610D
:1016B000E06988B36968C1F38101022945D0022835
:1016C000C6F8608004D0FFF71DFD044638E034E022
:1016D000FFF718FD074604E0FFF714FDC01B0228C2
:1016E0002BD828688001F7D4206AB0F5803F05D157
:1016F0006868A16820F4003008436860D4E90801F4
:101700000843696821F4741108436860C6F8609062
:10171000FFF7F8FC044606E015E000BFFFF7F2FC17
:10172000001B022809D828688001F7D50BE000BF0C
:10173000FFF7E8FC001B022802D90320BDE8F88F60
:1017400028688001F4D40020F8E70120F6E70000C3
:101750000010024000004242800442423400002057
:101760000070004070B5040005D00025A56294F813
:10177000510010B104E0012070BD204600F034F8A3
:10178000022084F851002068016821F040010160C6
:10179000D4E901010843D4E9031211430843616904
:1017A0000843218B01F400710843E1690843216A71
:1017B0000843A16A084321680860A069042101EA7E
:1017C0001040616A0843216848602168E06A086146
:1017D0002068C16921F40061C1616565012084F858
:1017E0005100002070BD000030B585B00024009489
:1017F00001940294039400681449884223D1144848
:10180000816941F480518161816901F480510491C1
:10181000816941F00401816180690E4D00F004008E
:101820000490A020009002200190032003906946BC
:101830002846FFF77BFB4020CDE900046946284697
:101840000294FFF773FB05B030BD0000003001408B
:1018500000100240000801402DE9F84F044690F8BE
:10186000500000260A9F9A4693460D464FF0010805
:1018700001280ED0012084F85000FFF743FC814678
:1018800094F85100616801280CD0B1F5827F07D12E
:1018900002E00220BDE8F88FA16809B9042801D050
:1018A0000226BDE055B1BBF1000F07D0BAF1000F21
:1018B00004D094F85100012802D004E00126AFE0E2
:1018C000052084F8510000206065C4F838B0A4F801
:1018D0003EA0A4F83CA02563A4F836A0A4F834A048
:1018E0002064606420680168490603D4016841F0FF
:1018F00040010160E068B0F5006F606804D0E8B3B3
:10190000E08E01283BD06AE010B1E08E01282ED194
:10191000216835F8020BC860E08E401EE08626E0A4
:10192000B8F1000F0DD0E08E58B1206881688907AA
:1019300007D535F8021BC160E08E401EE0864FF0EF
:101940000008E08F58B120688168C90707D0C068D7
:101950002BF8020BE08F401EE0874FF00108781C47
:1019600005D0FFF7CFFBA0EB0900B84246D2E08ECE
:101970000028D5D1E08F0028D2D136E0FFE72168DA
:1019800015F8010B0873E08E401EE08627E000BFCB
:10199000B8F1000F0DD0E08E58B12068816889073A
:1019A00007D515F8011B0173E08E401EE0864FF04D
:1019B0000008E08F58B120688168C90707D0C06867
:1019C0000BF8010BE08F401EE0874FF00108781CF8
:1019D00005D0FFF797FBA0EB0900B8420ED2E08ECE
:1019E0000028D5D1E08F0028D2D13B460122022128
:1019F0002046CDF8009000F0ADFE08B103260FE0C0
:101A00004A463946204600F095FE18B101262020AE
:101A1000606505E0A06818B92068C168806800901A
:101A2000012084F85100002084F85000304631E74E
:101A300010B5401EB0F1807F01D3012010BD4FF0E2
:101A4000E02460610F21601700F0F6FD0020A06126
:101A500007202061002010BD7047704730B590F816
:101A60003C20012A20D0012280F83C20022380F86B
:101A70003D3003685C6824F070045C6003685C6857
:101A80000D682C435C6003689C6824F080049C60B3
:101A900003689C6849680C439C6080F83D200021E5
:101AA00080F83C10084630BD022030BD10B504005F
:101AB00003D094F83D0010B107E0012010BD0020D4
:101AC00084F83C00204600F00DF8022084F83D0028
:101AD000211D206800F0FAFE012084F83D0000205E
:101AE00010BD000008B5154A0168154891420ED195
:101AF000816941F4006181618069002200F4006025
:101B0000009011461920FFF767FB192010E0B1F192
:101B1000804F11D1C16941F00101C161C06900224A
:101B200000F00100009011461C20FFF755FB1C201F
:101B3000BDE80840FFF744BB08BD0000002C014091
:101B4000001002400168CA6842F00102CA600068E1
:101B5000016841F0010101600020704770B5044642
:101B600090F83C00012817D0012584F83C50022051
:101B700084F83D002068826822F0770222F47F42D8
:101B800082600868502837D00DDC202859D005DC49
:101B900088B3102841D151E0022070BD302853D0C5
:101BA00040283AD13FE060282ED070280BD0B0F505
:101BB000805F03D0B0F5005F2FD110E0206881680E
:101BC00021F0070115E0CB68D1E90121206800F080
:101BD000B3FE2168886840F0770088601DE0CB681C
:101BE000D1E90121206800F0A7FE2068816841F456
:101BF0008041816011E01EE0CA684968206800F0F9
:101C0000ADFE5021206806E0CA684968206800F0EF
:101C1000B6FE6021206800F099FE84F83D50002057
:101C200084F83C0070BDCA684968206800F096FEE0
:101C300040212068EFE700212068ECE710212068B0
:101C4000E9E720212068E6E730212068E3E77047D4
:101C500070B50446006801694FF00005C943890763
:101C600015D4C168C943890711D4E91E0161012057
:101C70002077206880698007204602D0FFF7E7FFC1
:101C800004E000F098F8204600F096F825772068E8
:101C90000169C943490717D4C168C943490713D427
:101CA0006FF004010161022020772068806910F440
:101CB000407F204602D0FFF7CAFF04E000F07BF827
:101CC000204600F079F8257720680169C9430907A3
:101CD00016D4C168C943090712D46FF00801016125
:101CE000042020772068C0698007204602D0FFF7D3
:101CF000AEFF04E000F05FF8204600F05DF82577C5
:101D000020680169C943C90617D4C168C943C90617
:101D100013D46FF010010161082020772068C0699A
:101D200010F4407F204602D0FFF791FF04E000F05E
:101D300042F8204600F040F8257720680169C94341
:101D4000C90708D1C168C943C90704D1891E016107
:101D5000204600F033F820680169C943090609D418
:101D6000C168C943090605D46FF0800101612046AE
:101D7000FFF772FE20680169C943490609D4C168AA
:101D8000C943490605D46FF040010161204600F0C7
:101D900045F820680169C94389060BD4C168C94365
:101DA000890607D46FF0200101612046BDE870402C
:101DB000FFF753BE70BD7047704700007FB51449F0
:101DC000054600680968134C884210D1207A012822
:101DD0000DD100F043FC2079E379A27961798DE897
:101DE0000F00E378A2786178207802F0ADF9084915
:101DF000286840310968884209D1207A012806D133
:101E000004B04103BDE870400348FFF772B97FBDDD
:101E1000B80000200000002000100140704770470B
:101E200070B5026804461068D168536910F00F0F4E
:101E300050D003F0010501F4907635435DD0C20720
:101E400005D0CA0503D5E26B42F00102E263420706
:101E500005D5DA0703D0E26B42F00202E2638207A3
:101E600005D5DA0703D0E26B42F00402E263020711
:101E700005D5DA0703D0E26B42F00802E263E26BB9
:101E8000002A33D0800604D5880602D5204600F00B
:101E90009EFD20684069E16BC0F38010090700D403
:101EA00028B3204600F085FD2068416949061AD50F
:101EB000416921F040014161606BA0B11B49416360
:101EC000606BFEF7E7FF002810D0606B416BBDE848
:101ED00070400847830610D58B060ED52046BDE816
:101EE000704000F074BD2046FFF799FF70BD20469A
:101EF000FFF795FF0020E06370BD030606D50B06D3
:101F000004D52046BDE8704000F064BE4006F3D51D
:101F10004806F1D5D168204621F04001D16020214A
:101F200084F8391000F017F970BD0000A3290008EB
:101F300070B5040004D094F83900002510B106E013
:101F4000012070BD84F83850204600F023F824208A
:101F500084F839002068C16821F40051C16020462E
:101F600000F080FD2068016921F490410161206842
:101F7000416921F02A0141612068C16841F40051A2
:101F8000C160E563202084F8390084F83A0000201D
:101F900070BD000030B585B0002400940194029417
:101FA00003940068184988422CD11848816941F48B
:101FB00080418161816901F480410491816941F02E
:101FC000040181618069124D00F0040004904FF417
:101FD000007000900220019003200390694628467B
:101FE000FEF7A4FF2815CDE90004694628460294AF
:101FF000FEF79CFF002211462520FFF7EDF8252073
:10200000FFF7DEF805B030BD003801400010024097
:102010000008014090F83A30202B22D1F9B1F2B1FA
:1020200090F83830012B1CD081628285C285002156
:10203000C163222280F83A2080F838100168CA680B
:1020400042F48072CA6001684A6942F001024A6142
:102050000068C16841F02001C16000207047012084
:10206000704702207047000010B500680849884298
:1020700003D00848007A012809D100F001FB054986
:102080000122BDE8104009310348FFF7C3BF10BD6E
:102090000038014000000020380100202DE9F843FD
:1020A000044690F839001F4616460D46202850D1A8
:1020B000A5B19EB194F8380001284AD0012084F8D7
:1020C00038004FF00008C4F83C80212084F8390023
:1020D000FFF718F8A6848146E68426E00120BDE8D3
:1020E000F883E08C401EE084A0684B46B0F5805F2A
:1020F0004FF000024FF080012046009703D000F01F
:102100009AFDE8B90DE000F096FDC8B9288821686D
:10211000C0F308004860206908B16D1C05E0AD1CE3
:1021200003E0216815F8010B4860E08C0028D8D145
:102130004B46002240212046009700F07CFD08B16C
:102140000320CCE7202084F8390084F83880002070
:10215000C5E70220C3E77047FEE710B5142000F082
:10216000BCF8800705D10321BDE81040142000F021
:10217000D6B810BD7CB50446002529460D2000F0D8
:1021800064F9932020702020607001A823460090FD
:10219000022219460C2000F0CEF8010009D1225C81
:1021A000401C5540C0B20428F9D3205CA84200D09E
:1021B000022108467CBD2DE9F0410E460746154632
:1021C0000421052000F036F880210A2000F0A7F84D
:1021D000002405E0395D092000F037F9641CE4B201
:1021E000B442F7D30321012000F02FF9FF2405208A
:1021F00000F073F8641E14F0FF0401D04007F6D518
:10220000222000F06AF82870212000F066F868703B
:10221000BDE8F08170B505460146262000F064F85F
:10222000040003D12846FFF7A5FF044600F01CF880
:10223000204670BD70B50C46054600F04EF820EA09
:1022400004012846BDE8704000F0FFB810B5002238
:10225000835C8C5CA34201D0022010BD521CD2B220
:10226000052AF5D3002010BD0EB550208DF80400CE
:1022700000208DF805000DF10602022101A8FFF7EC
:102280009AFF02A801AB0090042219460C2000F02E
:1022900052F80EBD10B500F03EF88D212A2000F056
:1022A000D4F83E212B2000F0D0F81E212D2000F084
:1022B000CCF800212C2000F0C8F87021262000F076
:1022C000C4F84021152000F0C0F83D21112000F095
:1022D000BCF8BDE81040FFF740BF7E2101EA400096
:1022E00040F0800000F0F6B97CB50C4605460721A9
:1022F0000D2000F0AAF8257001A8234600900122C5
:1023000019460C2000F017F818B9BDF80410102970
:1023100000D002207CBD0F21012000F096B870B5DE
:102320000C460546FFF7D9FF40EA04012846BDE800
:10233000704000F08AB82DE9FF5F00270226DDF823
:1023400038A015468B468146B8460C2805D0B9F111
:102350000E0F05D11227102001E07727302080468C
:1023600047F08001022000F070F880210420FFF780
:1023700061FF80210A20FFF7D2FF0021012000F039
:1023800064F8002406E01BF80410092000F05DF852
:10239000641CA4B2AC42F6D34946012000F055F8C3
:1023A000B9F10C0F03D180210D20FFF7B8FF4FF4D6
:1023B000FA650420FFF791FF6D1E2D0404462D0CD5
:1023C00004D0E00702D114EA080FF2D080210D20DA
:1023D000FFF730FF35B10620FFF77FFF10F01B0F2E
:1023E00004D0022604B03046BDE8F09F00263C40F1
:1023F000E00700D00126B9F10C0FF3D10A20FFF756
:102400006CFF04460C20FFF768FF10F007004FEA4E
:10241000C40104D008390844AAF8000001E0AAF871
:10242000001024B1102C04D91024002503E001244D
:10243000FBE7002506E00920FFF74FFF0399485509
:102440006D1CADB2A542F6D3CCE77E2202EA400075
:1024500000F058B92DE9F04385B0002438480094C5
:10246000019402940394816941F0100181618169B2
:1024700001F010010491816941F0200181618169BD
:1024800001F020010491816941F0040181618169B9
:1024900001F004010491816941F0080181618069C2
:1024A000284F00F008004FF4005504900022294600
:1024B0003846FEF722FEDFF89080012210214046C8
:1024C000FEF71BFE00224FF418414046FEF715FEB2
:1024D000DFF87890002208214846FEF70EFE0095AE
:1024E000022601250396CDE9015469463846FEF7D8
:1024F0001DFD49F61000CDE90005CDE9024669460B
:102500004046FEF713FD40F603408DE83100694672
:102510004846FEF70BFD0820CDE90005CDE902464F
:1025200069464846FEF702FD1020CDE900046946E1
:1025300048460294FEF7FAFC05B0BDE8F0830000BF
:10254000001002400010014000080140000C014052
:102550000C480B494FF4007201604FF482714160E6
:1025600000218160C1600161C0E905121022C0E94B
:102570000721416281620A21C162FFF7F3B80000BE
:10258000003001406000002010B586B000241348E0
:10259000009401940294039404940F4905940160FB
:1025A0004FF4E151C0E9011442F6DF61C0E90314C0
:1025B00044618461FFF77AFA4FF4805000906946D5
:1025C0000648FFF7CBFA049404A904480594FFF7E2
:1025D00045FA06B010BD0000002C0140B8000020F4
:1025E00010B586B00024124800940194029403941C
:1025F00004944FF08041059401604FF4E151C0E92B
:10260000011441F28731C0E9031480218161FFF791
:102610004DFA4FF48050009069460548FFF79EFA46
:10262000049404A902480594FFF718FA06B010BDF7
:10263000F8000020FEE770470907090E002806DAB7
:1026400000F00F0000F1E02080F8141D704700F149
:10265000E02080F8001470477047000070B507480C
:10266000FEF778FB054C2068FEF736F8A4F120054C
:1026700028706068FEF730F8687070BD2000002098
:1026800070B50A4D0A4C697A0A2904D0E8682154C9
:10269000401CE86070BD064800F008FB00210846B9
:1026A000E9602154401C6428FBDB70BD0000002061
:1026B000780100200EB501238DF804000A20009057
:1026C00002AA01A90248FFF7C7F89DF808000EBD4D
:1026D0006000002070B50A4D0446002210212846F3
:1026E000FEF70BFD2046FFF7E5FF0020FFF7E2FFB6
:1026F0000446012210212846FEF7FFFC204670BD4B
:102700000008014070B50A4C0E4605460022102113
:102710002046FEF7F2FC2846FFF7CCFF3046FFF7D5
:10272000C9FF2046BDE8704001221021FEF7E5BC3C
:102730000008014038B50B46009204460022802173
:1027400000F008F8002804D0606D40F020006065BB
:10275000032038BD2DE9F0411D4617460E460446BC
:10276000DDF8188035E0681C33D02DB1FEF7CAFCC7
:10277000A0EB0800A8422CD32068416821F0E001BA
:1027800041606068B0F5827F0BD1A068B0F5004F62
:1027900002D0B0F5806F04D12068016821F04001BB
:1027A0000160A06AB0F5005F0AD1206801684DF6AB
:1027B000FF72114001602068016841F4005101601E
:1027C000012084F85100002084F850000320BDE867
:1027D000F0812068806836EA000004D00020B8420A
:1027E000C1D10020F3E70120F9E770471FB50022AF
:1027F00000910192029203926946FEF797FB1FBD7A
:102800001FB5002200910121CDE90112022103919F
:102810006946FEF78BFB1FBDFEF77ABC30B58FB063
:1028200028216846FDF7AFFC14210AA8FDF7ABFC90
:1028300001210804CDE9001000240294022504912E
:10284000CDE907504FF4E01009906846FEF708FE06
:102850000F20CDE90A056802CDE90C4002210AA843
:102860000E94FEF7EBFC0FB030BD00000D48016880
:1028700041F00101016041680B4A1140416001686B
:102880000A4A11400160016821F480210160416819
:1028900021F4FE0141604FF41F0181600449C0032F
:1028A00008607047001002400000FFF8FFFFF6FECE
:1028B00008ED00E00148FFF7CBB90000B8000020A8
:1028C0000148FFF7C5B90000F8000020F0B5026824
:1028D000164B174C174D4FF08047984205D0B84221
:1028E00003D0A04201D0A84203D122F070064A686A
:1028F0003243984205D0B84203D0A04201D0A8424A
:1029000003D122F44074CA68224322F080044A6949
:10291000224302608A68C2620A688262984201D1D8
:102920000969016301214161F0BD0000002C0140F3
:10293000000400400008004010B5846842EA032209
:1029400024F47F440A432243826010BD826822F04F
:1029500070020A4342F007018160704710B5036AB4
:10296000046A24F001040462846924F0F00444EA57
:10297000021423F00A020A438461026210BD10B5FA
:10298000036A23F0100303628369046A23F470432B
:1029900043EA023224F0A00343EA0111826101629A
:1029A00010BD10B5406A0021C185C184FFF737FA18
:1029B00010BD0168CA6822F49072CA6001684A6951
:1029C00022F001024A61202180F83A10704710B5C8
:1029D00090F83A10222901D0022010BD8168B1F58B
:1029E000805F11D00169002901681FD0496801F09A
:1029F0007F03816A4A1C82620B70C18D491E0904E3
:102A0000090CC18518D02BE00269816A002A02688E
:102A1000526805D0D2B20A80816A491C8162ECE713
:102A2000C2F308020A80816A891CF7E74A68816A52
:102A30004B1C83620A70E0E70168CA6822F020023A
:102A4000CA600168CA6822F48072CA6001684A6973
:102A500022F001024A61202180F83A10FFF704FBBE
:102A6000002010BD2DE9F041044600680169E268CC
:102A700021F44051114301612169A0680843616953
:102A800008432168CA6841F20C639A430243CA6052
:102A900020684169A26921F44071114341614C49A8
:102AA00020686425322688423CD1FEF793FC00EB77
:102AB000C00101EB001061688900B0FBF1F7FEF77F
:102AC00089FC00EBC00101EB00106168B046890091
:102AD000B0FBF1F0B0FBF5F06FF01801484307EBE5
:102AE000800106EB0110B0FBF5F000F0F006FEF7F8
:102AF00071FC00EBC00101EB001061688900B0FBC4
:102B0000F1F0B0FBF5F006EB0016FEF763FC00EB0E
:102B1000C00101EB001061688900B0FBF1F7FEF71E
:102B200059FC3BE0FEF746FC00EBC00101EB001056
:102B300061688900B0FBF1F7FEF73CFC00EBC001D7
:102B400001EB00106168B0468900B0FBF1F0B0FB0A
:102B5000F5F06FF01801484307EB800106EB011018
:102B6000B0FBF5F000F0F006FEF724FC00EBC0012E
:102B700001EB001061688900B0FBF1F0B0FBF5F0EB
:102B800006EB0016FEF716FC00EBC00101EB00108F
:102B900061688900B0FBF1F7FEF70CFC00EBC001A7
:102BA00001EB001061688900B0FBF1F0B0FBF5F0BB
:102BB0006FF01801484307EB800108EB0110B0FBF0
:102BC000F5F0216800F00F0030448860BDE8F08126
:102BD0000038014090F83910212901D002207047B7
:102BE0008168B1F5805F016A0BD04A1C02620268FD
:102BF00009785160C18C491E0904090CC1840ED0AA
:102C000017E009880268C1F30801516001690029D1
:102C1000016A02D0491C0162ECE7891CFBE70168EC
:102C2000CA6822F08002CA600068C16841F04001B1
:102C3000C160002070472DE9F041984617460E46C6
:102C40000446069D1DE0681C1BD02DB1FEF75AFA04
:102C5000A0EB0800A84214D92068C16821F4D07103
:102C6000C1602068416921F001014161202084F8A0
:102C7000390084F83A00002084F838000320BDE8C9
:102C8000F0812068006836EA000004D00020B842D5
:102C9000D9D00020F3E70120F9E700000148FFF751
:102CA000BFB8000038010020FEE700002DE9F04128
:102CB00000F0DCFD514C002820617DD050A100F0D7
:102CC000C7FDDFF8408100250126F8B14CA120693D
:102CD00000F0BEFD00694CA1FDF76CFAF70230B1BF
:102CE000012239464046FEF708FAA5700EE044A1DD
:102CF000206900F0ADFD006944A1FDF75BFA28B141
:102D0000002239464046FEF7F8F9A67040A1206936
:102D100000F09EFD00B33EA1206900F099FD00691E
:102D200039A1FDF747FA4FF4805730B101223946F7
:102D30004046FEF7E2F9E5700EE035A1206900F0AB
:102D400087FD006931A1FDF735FA28B10022394627
:102D50004046FEF7D2F9E6702EA1206900F078FD1A
:102D600000B32CA1206900F073FD006926A1FDF7D6
:102D700021FA4FF4004730B1012239464046FEF7B0
:102D8000BCF925710EE023A1206900F061FD006906
:102D90001EA1FDF70FFA28B1002239464046FEF782
:102DA000ACF926711CA1206900F052FD20B11AA1D6
:102DB000206900F04DFD00E01BE0006912A1FDF765
:102DC000F9F9164F30B1012208213846FEF795F97E
:102DD00065710EE010A1206900F03AFD00690BA1B9
:102DE000FDF7E8F928B1002208213846FEF785F9F9
:102DF00066712069BDE8F04100F006BD00000020CA
:102E00005442310000080140300000003100000051
:102E1000544232005442330054423400000C01400A
:102E20000FB4054B10B503A9044A029800F04CF901
:102E300010BC5DF814FB0000A1390008540000200C
:102E40000FB4084B10B504A902AA039800F03CF98E
:102E5000044602A9002000F0BAFC204610BC5DF830
:102E600014FB0000CF37000830B528B1144C031F05
:102E7000002021680A4605E0084630BD9A4203D882
:102E800010465268002AF9D1002800D041680BD0C2
:102E90000468A3EB0005A54204D11B681C4403464B
:102EA000046002E0436000E023603AB11C68D51A78
:102EB000A54203D115682C441C6052685A6030BD8D
:102EC000580000202DE9F04782460F4C10480D4E67
:102ED0000E4F001B4FF0000820F007054FF00109CE
:102EE00000221146504600F0A5FD002802D13068AE
:102EF00010B10020BDE8F0873C60C4E90058C6F876
:102F00000090EDE75C000020E40100205800002064
:102F1000E003002002E008C8121F08C1002AFAD10D
:102F200070477047002001E001C1121F002AFBD149
:102F3000704700002DE9FF5F82B00021DDE9043019
:102F4000020DDDF840B0034318D044F61050A2F251
:102F5000FF3242431514119801281FD0A5EB0B0036
:102F6000401C5FEA000A4FF000064E4FDFF8389130
:102F7000B046504615D5CAF1000413E0119801245B
:102F80004AA3012801D16FEA0B010298119AC0E906
:102F90000031C0E9024206B0BDE8F09FCBF100006D
:102FA000DFE704460021404A491842EB0450CDE9CE
:102FB000001012E0E00707D032463B464046494643
:102FC000FDF758FD8046894632463B461046194675
:102FD000FDF750FD06460F466410002CEAD1DDE9EE
:102FE0000401DDE90023BAF1000F06DAFDF742FD26
:102FF00042464B46FDF73EFD05E0FDF7ADFD42467E
:103000004B46FDF7A9FD04460E460022284BFDF76E
:10301000AFFB03D84FF0FF30014607E00022254BFD
:1030200020463146FDF7ACFAFDF711FE102409E009
:10303000002C0ADB0A220023FDF7C8FB039B303279
:103040001A55641E50EA0102F2D1641C039AC4F1BD
:1030500011031444119A012A03D0012208430DD10F
:103060000AE0084304D000204FF0110B119072E7E2
:10307000A3EB0B056D1E0DE05B4504DD4FF0000278
:1030800005F1010504E003DA4FF00002A5F10105A6
:10309000002AECD002981199C0E90231C0E900453C
:1030A00079E70000000014400000F03F300000000D
:1030B0000000F0430000E03F30380A2801D2012030
:1030C00070470020704700002DE9FF4F95B09A46E9
:1030D000884606460025EEE1252877D100242746BC
:1030E000F94A0121039400E0044316F8013F203B14
:1030F00001FA03F01042F7D130782A2811D06FF08E
:103100002F033078A0F13002092A16D8039A44F030
:10311000020402EB820203EB42021044761C03908D
:10312000EFE758F8042B0392002A03DA504244F4E4
:103130000054039044F00204761C30782E2816D1F7
:1031400016F8010F44F004042A280DD06FF02F0266
:103150003078A0F13003092B09D807EB870302EB85
:103160004303C718761CF3E758F8047B761C3078C5
:103170006C280FD006DC4C2817D068280DD06A28A0
:1031800014D104E0742810D07A280FD10DE044F453
:1031900000140AE044F4801401E044F4401472780E
:1031A000824202D104F58014761C761C30786628A1
:1031B0000BD013DC582877D009DC002875D04528BF
:1031C000F6D04628F4D047281AD193E118E06328B6
:1031D00035D0642879D0652812D18BE1702873D05E
:1031E00008DC6728F1D069286FD06E280DD06F28D1
:1031F00006D1ACE073282CD0752874D0782853D031
:103200005246179990476D1C54E1C4F302500228AE
:1032100009D003280DD0D8F8001004280DD00D6077
:1032200008F1040846E1D8F80010EA17C1E9005295
:10323000F6E7D8F800100D80F2E70D70F0E718F807
:10324000041B8DF8001000208DF80100EB460120D2
:1032500003E058F804BB4FF0FF3061074FF0000166
:1032600002D40DE009F101018946B9420FDA814526
:10327000F8DB1BF809100029F4D108E009F101017D
:1032800089468142FADB1BF809100029F6D1039820
:103290005346A0EB090721463846179A00F080FAFA
:1032A000284400EB090507E044E008E10DE01BF8C5
:1032B000010B524617999047B9F10109F7D25346CD
:1032C00021463846179AF2E039E00A21C4F3025247
:1032D0004FF0000B0091022A06D058F8040BC117DA
:1032E000032A09D00AE023E008F1070020F00702D2
:1032F000F2E80201904605E000B2C117042A01D1AC
:1033000040B2C117002906DA0A460021404261EBAB
:1033100002012D2202E0220504D52B228DF8042083
:10332000012203E0E20701D02022F7E7914657E0AF
:103330000A2100E010214FF0000B00910BE010215A
:103340004FF0000B44F004040827009103E008202C
:103350004FF0000B0090C4F30252022A05D058F837
:10336000040B0021032A08D008E008F1070020F030
:103370000702F2E80201904603E080B2042A00D17D
:10338000C0B24FF0000922072AD53278702A07D040
:10339000DDF800C08CF0100C5CEA0B0C05D00EE0E0
:1033A00040228DF80420012208E050EA010306D0F3
:1033B00030238DF804308DF8052002229146009BC1
:1033C00083F0080353EA0B030AD150EA010201D14A
:1033D000620705D530228DF804204FF001097F1EC9
:1033E0003278582A04D039A20C920CAA02920BE02F
:1033F0003BA2F9E75B46009AFDF7E8F90C9B9B5C62
:10340000029A521E0292137050EA0102F2D10298FF
:1034100004A9081A00F1200B600702D524F48034B7
:1034200000E001275F4502DDA7EB0B0000E0002074
:1034300000EB0B01009003984944401A0390E0030D
:1034400006D453462146179A039800F0A9F905447B
:10345000002706E001A85246C05D179990476D1CF1
:103460007F1C4F45F6DBE0030CD553462146179AE7
:10347000039800F095F9054404E03020524617996E
:1034800090476D1C0099481E00900029F5DC08E06B
:103490000298029952460078491C02911799904768
:1034A0006D1CBBF10001ABF1010BF1DC5BE100F045
:1034B00065F90544761C307800287FF40DAE19B00C
:1034C0002846BDE8F08F0000092801003031323372
:1034D0003435363738396162636465660000000050
:1034E000303132333435363738394142434445463A
:1034F00000000000600700D4062708F1070020F054
:103500000700F0E80223804603F0004C5FEA0C005D
:1035100001D097A009E0200501D596A005E0E007BD
:1035200001D095A001E0AFF24C001390307823F069
:10353000004365280CD006DC452809D046281DD05C
:1035400047287FD13BE0662818D067287AD136E03B
:103550000021112F01DB112000E0781CCDE90001D2
:1035600004A90CA8FFF7E6FCDDE90D010C9A4FF069
:10357000000B07F10109109200914EE04FF000405E
:103580000097CDE9011004A90CA8FFF7D3FCDDE9F1
:103590000D020C9B0F994FF0000B91461093009277
:1035A00011B9791C00EB0109B7EB090003D4C0F194
:1035B000FF3B07F10109A9EB0700019042E0012F51
:1035C00000DA01270021112F01DD112000E038462B
:1035D000CDE9000104A90CA8FFF7ACFCDDE90D0161
:1035E0000C9A00914FF0000BB946109221070FD4AE
:1035F000009A4A4503DA914601E0A9F10109B9F1BF
:10360000010F05DD109AA9F10101515C3029F4D0B8
:10361000B84202DA10F1040F03DA0121CDE90110FA
:1036200010E0002803DC8344A9EB000102E0411C08
:10363000494500DD8946A0EB0B00401C01904FF08E
:1036400000400290200705D40198484502DB4FF066
:10365000FF30019000208DF84B0002980DF14B07D0
:10366000B0F1004F25D002200C902B200D90029835
:1036700000280CDA404202902D200D9007E00A212C
:103680000298FDF78DF83031029007F8011D0C9972
:10369000481E0C900029F2DC02980028EFD1791E18
:1036A0000D980870307800F0200040F0450007F8D1
:1036B000020D11A8C01BC01D02901398007800B124
:1036C000012000EB0901019801EBE071029801442F
:1036D0000398401A401E0390E00306D45346214647
:1036E000179A039800F05CF805441398007818B115
:1036F0005246179990476D1CE00323D55346214647
:10370000179A039800F04CF805441BE0BBF1000F3A
:1037100007DB0098584504DD1098179910F80B0046
:1037200001E0179930205246904701980BF1010BA8
:10373000401E05F10105019004D12E205246179933
:1037400090476D1CB9F10001A9F10109DEDC05E02B
:1037500017F8010B5246179990476D1C0299481EA5
:1037600002900029F4DC53462146179A03989EE6FE
:103770002D0000002B000000200000002DE9F0418A
:10378000044600251E461746880404D405E0394641
:103790002020B0476D1C641EF9D52846BDE8F08195
:1037A0002DE9F041044600251E469046C80301D588
:1037B000302700E02027880404D505E0414638463C
:1037C000B0476D1C641EF9D52846BDE8F0810A6833
:1037D000531C0B601070704710B530B1036823B1F3
:1037E000D0E90121914201D204E0002010BD491C22
:1037F000816020B1914202D25C5C202CF7D99142C9
:10380000F4D1491E816010BD70B504460F4E19E019
:10381000A0892568C0050AD4A06820B1FFF7F4FF8D
:10382000A089C00503D4206908B171688847A089C0
:10383000800503D4206A08B1716888477168204602
:1038400088472C46002CE3D170BD000040000020CA
:10385000002200F0B1B810B50168282088470400A4
:1038600002D02821FCF78FFC204610BD0022114613
:1038700000F06EB82DE9F04788B00F4604469A462E
:1038800016461C216846FCF77EFC2F480025002CBC
:103890000560456055D08146E7B3CDE90047029504
:1038A000D9E90212D9F810000491CDE9052009F1F7
:1038B0000800FFF7D0FF5FEA00082BD000986F46A2
:1038C00008B1029808B100270BE00198042808D934
:1038D00003221EA10098FCF794FC10B90298C01CAA
:1038E00002903846FFF778FF0146404600F078FB2B
:1038F00068B1BAF1000F13D06846FFF76DFFDDE93C
:103900000101814203D202990098405C40B14046D7
:10391000FFF77AFFDDE9011088420AD205460BE085
:103920001EB10299009808443060404608B0BDE8D6
:10393000F087081E00D0451E0EB160193060C9E93D
:1039400000450020F2E7000038000020EFBBBF0078
:1039500070B515460E46040009D0FCF73DFC411C2D
:103960002B4632462046BDE87040FFF783BF00205B
:1039700070BD000031B5084D6C68FDF715FD0749B5
:10398000B0FBF1F000994843009068680099001B73
:103990008842FAD338BD0000001000E040420F001A
:1039A00013B54FF6FF73012269460248FEF776FB16
:1039B00000981CBD380100202DE9F0418846A8B3CD
:1039C000B8F1000F33D084680AB90AE024686CB3F8
:1039D000216A59B34046FCF706FC0028F6D120E0E6
:1039E00024681CB3266A5FEA0805F9D0002EF7D0D8
:1039F000B54218D002E098B16D1C761C2878FCF70F
:103A0000A3FB07463078FCF79FFB87422878F2D06B
:103A1000FCF79AFB05463078FCF796FB8542DFD130
:103A200024B1206A10B12046BDE8F081FFE70020F4
:103A3000FAE700002DE9F0410B3020F00706104DA9
:103A400019E02068B04215D3B0420AD9871B201D67
:103A5000D4F80480FCF77EFBA019C0E90078286048
:103A600004E060682860201DFCF774FB201D2660C0
:103A7000BDE8F081251D2C68002CE2D10020F7E77D
:103A8000580000209CB0FDF74BFBFEF7C7FEFEF789
:103A9000E1FCFEF75DFD41483F49002501604FF420
:103AA000E131C0E901150C21C560C0E9045185610F
:103AB000C561FEF73DFAFEF767FDFEF791FD374859
:103AC000D838FDF74FFE3548FEF732FAFEF7E2FB35
:103AD00032488038FEF736F830484038FEF732F882
:103AE00001222F492D48FEF795FA00224FF400518C
:103AF0002C48FDF702FB01222B4ED4022146304612
:103B0000FDF7FBFA012211033046FDF7F6FA012218
:103B1000D1033046FDF7F1FA244E01220821304648
:103B2000FDF7EBFAA0461E4C01274FF48069093CD3
:103B30001B481030FEF76EFBE8B9642103A8FCF7C0
:103B400022FB1748103081780379C2788DE80E0087
:103B50004378027816A103A8FFF772F910490B31D8
:103B6000481DFEF773FB28B9207A401CC0B22072B2
:103B7000022800D1257241463046FDF7B5FA38B12A
:103B8000A77149463046FDF7AFFA18B1E771CFE7A4
:103B9000A571F6E7E571CBE7003801403801002058
:103BA000090000200010014000080140000C014005
:103BB0002530325825303258253032582530325889
:103BC00025303258000000002DE9F041074600255D
:103BD000C8680C462E46B0F57A7F5BD2401CE06088
:103BE0002168A068095C5B2954D1401CA060204674
:103BF000FFF7F2FD4CB1D4E90110884203D22268EC
:103C0000125C5D2A33D0884203D3A068401EA060B6
:103C100040E0401E04F11008A0604046FFF71BFE84
:103C200098B30DB3306046600646A068401CA060A3
:103C30002046FFF7D1FD2146304600F0D1F930B3E0
:103C40002046FFF7C9FD14B3D4E90110884203D21E
:103C50002168095C2C29E0D06268904217D2216863
:103C6000085C5D2813D102E005462E46DDE7E068DA
:103C7000401EE06005B16E602020C7E90250A068D8
:103C8000401CA0600120BDE8F081FFE715B1284687
:103C9000FFF7BAFD0020F6E7034610B50020024604
:103CA000995CA1F13004092C01D830380AE0A1F167
:103CB0004104052C01D8373804E0A1F16104052C3A
:103CC00008D857380844032A00D20001521C042A9D
:103CD000E6D310BD002010BD2DE9F04192B04FF0A9
:103CE000000506460C004FF02E03284610953CD0E8
:103CF0002168D1B36A4627E027683944415C3429FA
:103D00001BD00ADCA1F12B07092F23D2DFE807F033
:103D10001522151722151515150038290DD006DCAA
:103D200035290AD0362908D0372913D105E0392999
:103D300003D0452901D065290CD1115400E013545A
:103D4000401C3F2806D22CB1A168D4F804C00F183B
:103D50006745D1D31554904610A9104600F0D2FA09
:103D60000F4610990546884503D1002012B0BDE8E2
:103D7000F081C6E90657114A114B28463946FCF72F
:103D8000F7FC02D86FF000400DE000220D4B2846F2
:103D90003946FCF7D5FC02D84FF0004003E0284636
:103DA0003946FCF7ADFC70610820F060109AA168FC
:103DB000A2EB08000844A0600120D7E70000C0FF84
:103DC000FFFFDF410000E0C12DE9F041074600267A
:103DD000C8680C463546B0F57A7F78D2401CE06062
:103DE000002C74D0D4E90110884270D22168095C9B
:103DF0007B296CD1401CA0602046FFF7EDFCD4E984
:103E00000110884203D22268125C7D2A4CD088427D
:103E1000A0F10100A0605AD204F110084046FFF75B
:103E20001AFDE8B3F6B1286045600546A068401C5D
:103E3000A0602046FFF7D0FC2146284600F049F854
:103E400078B32046FFF7C8FC286928620020286163
:103E50003CB3D4E90110884236D22168095C3A2982
:103E600032D102E006463546E0E7401CA06020461D
:103E7000FFF7B2FC2146284600F0B2F888B1204690
:103E8000FFF7AAFCD4E90110884203D22168095C3B
:103E90002C29C3D06268904216D22168085C01E0E8
:103EA00011E011E07D280FD1E068401EE06006B10E
:103EB00075604020C7E90260A068401CA060012036
:103EC000BDE8F08103E016B13046FFF79DFC00200D
:103ED000F6E72DE9F84380468B6808684FF0000943
:103EE000C418CDF8009008680E46651CC15C641CBF
:103EF00022296ED10022716808E0BCF15C0F04D168
:103F00007F1C8F4265D2521C641C641C271A8F428E
:103F100004D294F800C0BCF1220FEED1271A8F42D0
:103F200057D22178222954D11844201A801A316995
:103F3000401C884707004CD0009737E029785C295F
:103F400005D000986D1C00F8011B00902EE00220A7
:103F5000611B012939DB6A78662A14D008DC222A21
:103F600012D02F2A10D05C2A0ED0622A2DD108E060
:103F70006E2A0ED0722A0ED0742A0ED0752A24D141
:103F80000DE0082200E00C22009901F8012B0091BD
:103F90000BE00A22F8E70D22F6E70922F4E76A4669
:103FA0002146284600F0BCF978B10544A542C5D3A6
:103FB000009981F800901021C8E903173068201A91
:103FC000401CB0600120BDE8F88317B17169384624
:103FD000884715B13068281AB0600020F3E7000068
:103FE00070B50C0005465ED0206800285BD0A16843
:103FF00063680A1D9A4205D80844042231A1FCF7DF
:1040000000F978B3A0686268411D0126914206D884
:104010002168052208442DA1FCF7F3F828B3A06815
:104020006268011D914206D821680422084429A132
:10403000FCF7E7F8E8B1D4E90101814203D2226834
:10404000525C222A1DD0814221D22268525C2D2A44
:1040500002D0303A092A1AD821462846BDE87040D5
:10406000FFF73ABE0420E86006E0EE60A068401D5D
:1040700004E002206E61E860A068001DA0600120DD
:1040800070BD21462846BDE87040FFF722BF81423F
:1040900003D22268525C5B2A07D0814203D2206897
:1040A000405C7B2807D0002070BD21462846BDE833
:1040B0007040FFF789BD21462846BDE87040FFF7F4
:1040C00083BE00006E756C6C0000000066616C734E
:1040D0006500000074727565000000002DE9F0476E
:1040E00004008A4616D054F8047CD4F800903E1F91
:1040F000564500D956462046FEF7B6FE0546884688
:10410000324621465046FFF795FC40B1C0F800907A
:10411000BDE8F087BDE8F0470846FEF7D3BE44E9A6
:10412000017955B129686A18211F8A4202D9611B99
:10413000091F2960C5F80480EAE7024AC2F8008036
:10414000E6E70000580000202DE9F04FB1B0054629
:104150003AA80C4690E8C0039B4692466421684604
:10416000FCF711F8002019901A901B901C901D90DC
:104170001E901F90209021902290239024902590B3
:1041800026902790289029902A902B902C902D9063
:104190002E902F9030902A4646A119A8FEF750FE87
:1041A000224644A11CA8FEF74BFE524641A11FA87F
:1041B000FEF746FE5A463FA122A8FEF741FE3246D0
:1041C0003CA125A8FEF73CFE3A463AA128A8FEF7F6
:1041D00037FE424637A12BA8FEF732FE4A4635A1EC
:1041E0002EA8FEF72DFE34A16846FBF7D7FF19A9CC
:1041F0006846FBF7D3FF32A16846FBF7CFFF31A13A
:104200006846FBF7CBFF1CA96846FBF7C7FF2CA14C
:104210006846FBF7C3FF2DA16846FBF7BFFF1FA948
:104220006846FBF7BBFF26A16846FBF7B7FF29A14D
:104230006846FBF7B3FF22A96846FBF7AFFF20A152
:104240006846FBF7ABFF25A16846FBF7A7FF25A94A
:104250006846FBF7A3FF1AA16846FBF79FFF21A161
:104260006846FBF79BFF28A96846FBF797FF14A158
:104270006846FBF793FF1DA16846FBF78FFF2BA94C
:104280006846FBF78BFF0EA16846FBF787FF19A175
:104290006846FBF783FF2EA96846FBF77FFF17A14F
:1042A0006846FBF77BFF694615A0FEF7B9FD31B004
:1042B000BDE8F08F256400007B224E44223A2200A4
:1042C000222C0000224441223A2200002254423192
:1042D000223A220022544232223A2200225442330D
:1042E000223A220022544234223A2200224342310E
:1042F000223A220022434232223A2200227D0A0040
:104300002573000000B583B00A460021CDE90011F5
:1043100001466846FCF7E7FADDE9000103B000BD9D
:104320002DE9F04705460027481B16468946062812
:104330005DDBA81CFFF7B0FC0446A0F55C414FF420
:104340008060814253D3A4F55841824651451AD228
:10435000A81DA9EB00014FF00C08062947DB0178E6
:104360005C2944D14178752941D1801CFFF794FC28
:10437000A0F55C4151453AD2C4F3090161F39F2095
:1043800000F5803002E04FF006082046802801D278
:10439000012110E0B0F5006F02D20221C0270AE02F
:1043A000B0F5803F02D20321E02704E0B0F5881F7A
:1043B0001DD20421F0274A1E08E000BF00F0BF0311
:1043C000346843F080038009A354521E12F0FF02A8
:1043D000F4D1012901D9384301E000F07F003268AF
:1043E00010703068084430604046BDE8F087002017
:1043F000FBE70000000000000000010203040607C4
:1044000008090000000001020304DDDDDDDDDCBB86
:10441000BBDDDDDDDDDDDDDDDDDD988888888888DC
:104420008888777777777788888885555556666640
:1044300066666666666666688888833333322222DB
:104440002222222222222228888D00006C44000889
:104450000000002060000000142F0008CC44000879
:104460006000002080070000242F000800000000EA
:10447000000000000100000000000000000000003B
:10448000CCEC04381C00000000000000000000001C
:10449000000000000100000010000000000000000B
:1044A00000A24A040000000000000000C52E000821
:1044B000692E0008DD400008000000000000000038
:0C44C000000000000000000000000000F0
:04000005080000ED02
:00000001FF
